:1000000000000320C5040000290500002D050000A4
:100010002505000025050000250500000000000062
:10002000000000000000000000000000310500009A
:10003000250500000000000035050000390500001E
:100040003D05000041050000450500004905000090
:100050004D05000051050000550500005905000040
:100060005D050000610500006505000069050000F0
:100070006D050000710500007505000079050000A0
:100080007D05000025050000250500002505000070
:1000900025050000250500002505000025050000B8
:1000A0008105000085050000890500008D05000020
:1000B0009105000095050000990500009D050000D0
:1000C000A1050000A5050000A90500002505000008
:1000D0002505000025050000250500002505000078
:1000E0002505000025050000250500002505000068
:1000F0002505000025050000250500002505000058
:100100002505000025050000250500002505000047
:100110002505000025050000250500002505000037
:100120002505000025050000250500002505000027
:100130002505000025050000250500002505000017
:1001400025050000AD05000025050000250500007F
:100150002505000025050000B1050000250500006B
:100160002505000025050000B50500002505000057
:1001700025050000250500002505000025050000D7
:1001800025050000B9050000250500002505000033
:1001900025050000250500002505000025050000B7
:1001A000250500002505000025050000BD0500000F
:1001B0002505000025050000250500002505000097
:1001C0002505000025050000250500002505000087
:1001D000C1050000250500002505000025050000DB
:1001E0002505000025050000250500002505000067
:1001F0002505000025050000250500002505000057
:100200002505000025050000250500002505000046
:100210002505000025050000250500002505000036
:100220002505000025050000250500002505000026
:100230002505000025050000250500002505000016
:100240002505000025050000250500002505000006
:1002500025050000250500002505000025050000F6
:1002600025050000250500002505000025050000E6
:1002700025050000250500002505000025050000D6
:1002800025050000250500002505000025050000C6
:1002900025050000250500002505000025050000B6
:1002A00025050000250500002505000025050000A6
:1002B0002505000025050000250500002505000096
:1002C0002505000025050000250500002505000086
:1002D0002505000025050000250500002505000076
:1002E0002505000025050000250500002505000066
:1002F0002505000025050000250500002505000056
:100300002505000025050000250500002505000045
:100310002505000025050000250500002505000035
:100320002505000025050000250500002505000025
:100330002505000025050000250500002505000015
:100340002505000025050000250500002505000005
:1003500025050000250500002505000025050000F5
:1003600025050000250500002505000025050000E5
:1003700025050000250500002505000025050000D5
:1003800025050000250500002505000025050000C5
:1003900025050000250500002505000025050000B5
:1003A00025050000250500002505000025050000A5
:1003B0002505000025050000250500002505000095
:10040000FFFFFFFFFFFFFFFFFFFFFFFFFE3DFFFFBF
:1004100010B5054C237833B9044B13B10448AFF33E
:1004200000800123237010BD7000FF1F000000003A
:100430002C46000008B5034B1BB103490348AFF33A
:10044000008008BD000000007400FF1F2C46000063
:10045000154B002B08BF134B9D46A3F5803A002196
:100460008B460F461348144A121A02F01BF90F4B21
:10047000002B00D098470E4B002B00D0984700204F
:10048000002104000D000D48002802D00C48AFF3F5
:10049000008002F0E3F82000290000F07BF902F070
:1004A000B7F800BF000008000000032000000000B3
:1004B000000000007000FF1FB003FF1F00000000DD
:1004C0000000000072B60E480E4901600A6882F30F
:1004D00008880D4880470D490D4A0E4B9A42BEBF11
:1004E00051F8040B42F8040BF8E70B490B4A0020C3
:1004F0009142BCBF41F8040BFAE762B60848804756
:1005000008ED00E000000000451300005446000024
:100510000000FF1F7000FF1F7000FF1FB003FF1FD0
:1005200051040000FFF7FEBF264800472648004759
:1005300026480047264800472648004726480047E7
:1005400026480047264800472648004726480047D7
:1005500026480047264800472648004726480047C7
:1005600026480047264800472648004726480047B7
:1005700026480047264800472648004726480047A7
:100580002648004726480047264800472648004797
:100590002648004726480047264800472648004787
:1005A0002648004726480047264800472648004777
:1005B0002648004726480047264800472648004767
:1005C00026480047290500002D05000031050000E0
:1005D0003505000039050000E11400001915000080
:1005E0005115000089150000C1150000F915000023
:1005F0003116000069160000A1160000D91600008F
:10060000111700004917000081170000B9170000FA
:10061000F11700002918000025050000F112000064
:10062000051300003D10000071100000950E000041
:10063000D10E0000291C0000491C0000691C0000AC
:10064000891C0000A91C0000A5100000B9120000C0
:1006500019130000491200002D13000025050000A9
:1006600001F0FF01102A2BDB10F0070F08D010F863
:10067000013B013A8B422DD010F0070F42B3F6D167
:10068000F0B441EA012141EA014122F007047FF080
:1006900000070023F0E80256083C85EA010586EAD7
:1006A000010685FA47F5A3FA87F586FA47F6A5FA13
:1006B00087F68EB9EED1F0BC01F0FF0102F007021F
:1006C00032B110F8013B013A83EA010313B1F8D1CA
:1006D0000020704701387047002D06BF35460338AB
:1006E000073815F0010F07D1013015F4807F02BFE4
:1006F000013015F4C03F0130F0BC0138704700BF35
:10070000002070470278437843EA0223014A002020
:10071000138070470000FF1F08B501F0EDFA0020BC
:1007200008BD08B501F0D8FA002008BD10B5044690
:1007300001F0D0FA00F046FC204601F0D5FA00F0B6
:1007400049FC204601F0C7FA22461021722000F031
:10075000E3F8002010BD000070B5044601F0BAFABD
:100760000B4E00253388AB4209D8204601F0B3FA7E
:1007700022461021722000F0CFF8002070BD00F05A
:1007800021FC204601F0B0FA013500F023FCE9E736
:100790000000FF1F1FB51E4B6A4603F110061546E9
:1007A00018685968144603C40833B3422246F7D187
:1007B00000F0ACFB00F0BAFB00F0E6FB01F084FABD
:1007C000284601F089FA00F08FF8124A10216B20B8
:1007D00000F086F8104A1021702000F081F80F4ACE
:1007E0000021782000F07CF801230D4A12216D20B1
:1007F00000F05AF80B4A0221732000F071F80A4AFF
:100800001021662000F06CF800F0DEF8FCE700BF75
:1008100080350000230700002D07000001070000BD
:100820001907000005070000590700000120704764
:1008300070B50023834201DB002021E001EB43057A
:1008400011F813406D78A5F13006F6B2092E0BD8D9
:10085000D654A4F13005EEB2092E14D8D45C44EA83
:100860000514D4540133E5E7A5F14106052E02D85D
:10087000373DD554EDE7A5F16106052E01D90120DC
:1008800070BD573DF5E7A4F14105052D02D8A4F14F
:100890003705E3E7A4F16105052DF0D8D55C573C99
:1008A00045EA0414DDE70000F0B50B4E34680F2C68
:1008B0000FDCBF290DD8DFF824C027010CEB07059A
:1008C000C5E9011201340CF807002B7334600020D5
:1008D000F0BD0120FCE700BF8C01FF1F8C00FF1F53
:1008E0000023FFF7E1BF000008B5084A0021762089
:1008F000FFF7F6FF064A00217720FFF7F1FF054AD0
:1009000000217920BDE80840FFF7EABF2D0800006C
:100910007509000055090000F8B515460F4600F0AE
:100920006FFB0B4E2C46631B9F4204DC0A20BDE884
:10093000F84000F065BB23781B09F05C00F060FB19
:1009400014F8013B03F00F03F05C00F059FBEAE7F9
:100950009035000007B5064B02AA1B6802F8013D5E
:1009600001217220FFF7D8FF002003B05DF804FBDF
:100970008C01FF1F70B5124B124C19688CB0CEB2AF
:100980000020C3B2B34200F1010009DB01EB4101D9
:100990006A46C9B27220FFF7BFFF00200CB070BDDD
:1009A00003EB43020CAD1B012A44E518E35C02F89B
:1009B000303C6B6802F82F3C2B7B02F82E3CE0E7C2
:1009C0008C01FF1F8C00FF1F2DE9F041ADF5127D5A
:1009D00000F008FB2C4B2D491A6800239A4204DCD6
:1009E00007D10DF5127DBDE8F0811C01645C8442E5
:1009F0003DD1264C1D016619337BDB0714D500233E
:100A00008DF8083000F0EEFA8DF8C80000F0EAFA30
:100A100002AA8DF8C90032A90120FFF709FF0028BA
:100A2000DFD19DF808307360002667190DF1C80802
:100A30007B68B6EB430F1CD300F0D4FA0A2801D030
:100A40000D28CED12C4402AA656832A92846FFF7AA
:100A5000EFFE0028C5D1E9B2A36802A8984701AA11
:100A60008DF8040001217A20FFF756FFB9E7013322
:100A7000B4E700F0B7FA0A28B3D00D28B1D006F8D1
:100A800008000136D4E700BF8C01FF1F8C00FF1F58
:100A900010B5D2E90034A3421BD902391A1B072929
:100AA00005D8DFE801F01830485E748AA0B1B2F5CD
:100AB000803F80F0B880B3F5803F80F0B480016A59
:100AC000090C09040B430362036A9BB243EA024226
:100AD0000262002010BDB2F5004F80F0A480B3F593
:100AE000004F80F0A080416A21F4FF4121F07F0196
:100AF0000B434362436A23F0FF4323F4FE0343EABC
:100B000002424262E5E7B2F5804F80F08C80B3F597
:100B1000804F80F08880816A21F47F5121F03F016D
:100B20000B438362836A23F07F5323F47C1343EAED
:100B300002428262CDE7B2F5005F74D2B3F5005F86
:100B400071D2C16A21F4FF5121F01F010B43C3622E
:100B5000C36A23F0FF5323F4F81343EA0242C2624C
:100B6000B7E7B2F5805F5ED2B3F5805F5BD2016B11
:100B700021F47F6121F00F010B430363036B23F02A
:100B80007F6323F4702343EA02420263A1E7B2F5D4
:100B9000006F48D2B3F5006F45D2416B21F4FF617D
:100BA00021F007010B434363436B23F0FF6323F4FE
:100BB000E02343EA024242638BE7B2F5006F32D290
:100BC000B3F5006F2FD2816B21F4FF6121F0070193
:100BD0000B438363836B23F0FF6323F4E02343EA37
:100BE0000242826375E7B2F5803F1CD2B3F1807F89
:100BF00019D2C16801F07F410B43C36083681B0CAD
:100C00001B041A43826064E7084A94420BD893425B
:100C100009D8C26906490A401343C36183690B407E
:100C20002343836155E7042054E700BFFFFF3F00E3
:100C30000000C0FF08B5034A034B04484FF49B6112
:100C400001F0C8FCA0350000B1350000D43500002B
:100C5000B8B3DFF878C01C49C0E901C14FF4AD6CEE
:100C600040F25C41C0E903C140F2951CE321C0E9B8
:100C700005C14FF0DC0C6221C0E907C14FF07D0CCB
:100C80002521C0E909C14FF04B0C0B210122C0E91D
:100C90000BC12F21C0E90D12C0E90F12C27046F638
:100CA000201145F67D720023C0E911124FF4C84CA3
:100CB0004FF4C862037043708370C0E913C21846D2
:100CC00070470420704700BF3F000122800CC40918
:100CD00038B50D460446C8B1C1B15C4B984240F0EE
:100CE000B3805B4A136843F001031360036823F485
:100CF000883343F480330360036823F4825343F062
:100D0000400303608A7A531E0E2B01D904209AE017
:100D1000636823F4702343EA0243636005F10C0225
:100D20000121FFF7B5FE002840F08D8005F1140287
:100D300002212046FFF7ACFE002840F0848005F138
:100D40001C0203212046FFF7A3FE00287BD105F1FA
:100D5000240204212046FFF79BFE002873D105F1F1
:100D60002C0205212046FFF793FE00286BD105F1E8
:100D7000340206212046FFF78BFE002863D1334C56
:100D800005F13C0207212046FFF782FE00285AD1D8
:100D900005F1440208212046FFF77AFE002852D1CF
:100DA00005F14C0209212046FFF772FE00284AD1C6
:100DB0006B782268DB0122F48452DBB21343236098
:100DC0002268AB7822F480529B0022F00C0203F0E0
:100DD0000C03134323602268EB7822F4805222F044
:100DE000030203F00303134323602369AA889BB221
:100DF00043EA024323612369EA881B0C1B04134363
:100E0000236162692B8922F47F7222F00302C3F30B
:100E10000903134363616368EA7A23F0FF03134312
:100E20006360236823F488332360236823F48153A9
:100E300043F0200323602B782BB1D4F8B03043F07B
:100E40000203C4F8B03038BDFFF7F4FE00000A40DA
:100E50003080044008B52AB90B4B0C4A0C48652178
:100E600001F0B8FB012303FA01F1137823B94369B8
:100E700023EA0101416108BD53781BB981604369D0
:100E80001943F7E74160FAE72936000030360000E1
:100E90001036000008B5084B196831B9074B084AED
:100EA000084840F20B5101F095FB074B07481B68BF
:100EB0009847BFF34F8F08BD9001FF1F4F360000CA
:100EC0009B360000833600009C01FF1F00F00240AB
:100ED00008B5084B596831B9074B084A084840F231
:100EE000165101F077FB074B07481B689847BFF383
:100EF0004F8F08BD9001FF1F3D360000B436000043
:100F0000833600009801FF1F00F0024000B597B043
:100F100000F030FA01A8FFF79BFE01A90248FFF795
:100F2000D7FE17B05DF804FB00000A407FB5124AF7
:100F3000136843F48063136001A800F0C5FD0F4AF5
:100F40000F484FF41643019301238DF814308DF8A8
:100F50001530136C23F4E06343F440731364536C53
:100F600023F4E06343F44073536401A9054A00F09D
:100F7000A3FC07B05DF804FB3880044000A00440E7
:100F800000400C40107570000C4A13B5D36C0C4C2B
:100F900023F4E06343F48073D36401238DF80430B9
:100FA00001AA0023132120468DF80530FFF752FFD8
:100FB0004FF40023A36002B010BD00BF00A00440A6
:100FC00040F00F40024B4FF400225A60704700BFC0
:100FD00040F00F40024B4FF400229A60704700BF70
:100FE00040F00F4007B501220DF10701034800F062
:100FF000D3FD9DF8070003B05DF804FB00400C40F2
:1010000007B502A9012201F8010D034800F0AAFD6D
:1010100003B05DF804FB00BF00400C4008B5036856
:10102000002BB4BF034B044B1B689847BFF34F8F93
:1010300008BD00BFAC01FF1FB001FF1F08B5074B83
:10104000196831B9064B074A07484FF4DC6101F0D3
:10105000C1FA0648BDE80840FFF7E0BFA001FF1F46
:101060000937000039370000F036000000C00240A8
:1010700008B5074B596831B9064B074A07484FF482
:10108000DD6101F0A7FA0648BDE80840FFF7C6BFDA
:10109000A001FF1F193700004F370000F036000095
:1010A00000D0024008B5074B996831B9064B074A92
:1010B00007484FF4DE6101F08DFA0648BDE80840AC
:1010C000FFF7ACBFA001FF1F293700006537000004
:1010D000F036000000C00A401249426841F2440361
:1010E00070B5CA5041F2040602788D59437884786D
:1010F000120402F4403225F440352A435B008A5141
:1011000003F00E0304F00102134341F264028B501A
:10111000C3780A689B0403F4402322F4402213435B
:101120000B6070BD0070044010B50B490A7B0B7B4F
:1011300000F0030403F0FC0323430B7302F00303EA
:10114000834205D1002010BD00BF013BFCD1F9E76F
:1011500040F2DD53F9E700BF00400640036849F65E
:101160009702934210B526D9144CA34294BF012490
:101170000224134A0179137803F0F0030B43137030
:101180001378817903F05F030B431370C3790D4922
:101190009B01DBB293704B78407903F0C3030343A8
:1011A00043EA04134B7028B113781A0602D58B79E1
:1011B0009B07FCD510BD0024DBE700BF00127A00BE
:1011C000005006400040064070B51E4A517901F0BB
:1011D000BF01517191798D06FCD4517801F0FD0168
:1011E0005170D6789179C1F30011F6B241B3D1783C
:1011F00081F02001D170012212490C78C00000F06A
:10120000380504F00300284340F080000870087B94
:10121000840705D14878400702D588798507FCD531
:10122000084908468C79E406FCD402B1CE70827974
:10123000C2F38102022AFAD103B19847002070BD9F
:101240000A46D9E70040064008B5084B196831B98D
:10125000074B084A084840F2945101F0BBF9074B8C
:1012600007481B689847BFF34F8F08BDB801FF1FA1
:101270007B370000C837000092370000BC01FF1F19
:1012800000100B4010B5094C216821B1084B094AE8
:101290001B6810689847616821B1054B054A5B6877
:1012A00050689847BFF34F8F10BD00BFC001FF1FAC
:1012B000C801FF1FD001FF1FFFF7E4BF10B5C278C0
:1012C000D20603460C4602D48278920607D5064A17
:1012D0002146126818469047BFF34F8F10BD034B4D
:1012E0001B689847F8E700BFE801FF1FEC01FF1FEC
:1012F000024B03481968FFF7E1BF00BFD801FF1F89
:1013000000600640024B03485968FFF7D7BF00BF93
:10131000D801FF1F00700640024B03489968FFF791
:10132000CDBF00BFD801FF1F00600E40024B034835
:10133000D968FFF7C3BF00BFD801FF1F00700E4080
:101340007047000008B5064B4CF22052DA814DF68A
:101350002812DA814FF4E9721A80FFF7F1FF08BD15
:101360000020054047F23153013B00D1704700BFD8
:10137000FAE7000038B5154C1548164D41F2440304
:101380004FF08A72E250FFF7E9FE134B00201D6018
:10139000FFF7CAFE114B002201210320FFF714FFC3
:1013A0000F48FFF799FE0F4B41F204021D60A3584E
:1013B00023F0406343F00063A350A35843F48053E9
:1013C000A35041F268030022E25038BD007004408F
:1013D000E037000010757000B401FF1F65130000B6
:1013E000E83700000400FF1F1F2908B506D90D4B80
:1013F0000D4A0E4840F2C11101F0ECF800EB411229
:1014000041F21C03D25AC36A406ACB40C8405B0019
:10141000800000F0040003F002030343C2F3C01095
:10142000184308BD3B3800008E3800002238000009
:1014300070B5054630B9274B274A28484FF45571F7
:1014400001F0C8F88268017CD177C368046833B9B9
:101450002CB141680122A446BDE87040604702EB10
:10146000411241F21C0041F218015158125A02F087
:101470008002002AA1EB030114BF012200224FEADF
:10148000511114D0C9B26B7C5BB2994217D1EB7C7D
:10149000287D98421BD1EB7C5BB249B26974E97C30
:1014A000C91A49B2E974A4B169682846D3E709B1F9
:1014B0000139E7E7297D013901F0FF01E3E76B7CA2
:1014C0005BB2CB1AE9D5287D43FA80F3E5E7002328
:1014D000E3E770BDF0370000A938000022380000B3
:1014E00008B500210A48FFF77FFF420703D5094BE3
:1014F0001868FFF79DFF10210548FFF775FF4307A8
:1015000003D5044B186CFFF793FFBFF34F8F08BD53
:1015100000800040F001FF1F08B501210A48FFF7D5
:1015200063FF420703D5094B5868FFF781FF11217C
:101530000548FFF759FF430703D5044B586CFFF7E5
:1015400077FFBFF34F8F08BD00800040F001FF1F01
:1015500008B502210A48FFF747FF420703D5094BA8
:101560009868FFF765FF12210548FFF73DFF430725
:1015700003D5044B986CFFF75BFFBFF34F8F08BD9B
:1015800000800040F001FF1F08B503210A48FFF763
:101590002BFF420703D5094BD868FFF749FF1321FA
:1015A0000548FFF721FF430703D5044BD86CFFF72D
:1015B0003FFFBFF34F8F08BD00800040F001FF1FC9
:1015C00008B504210A48FFF70FFF420703D5094B6E
:1015D0001869FFF72DFF14210548FFF705FF4307A2
:1015E00003D5044B186DFFF723FFBFF34F8F08BDE2
:1015F00000800040F001FF1F08B505210A48FFF7F1
:10160000F3FE420703D5094B5869FFF711FF152177
:101610000548FFF7E9FE430703D5044B586DFFF774
:1016200007FFBFF34F8F08BD00800040F001FF1F90
:1016300008B506210A48FFF7D7FE420703D5094B34
:101640009869FFF7F5FE16210548FFF7CDFE430721
:1016500003D5044B986DFFF7EBFEBFF34F8F08BD2A
:1016600000800040F001FF1F08B507210A48FFF77E
:10167000BBFE420703D5094BD869FFF7D9FE1721F6
:101680000548FFF7B1FE430703D5044BD86DFFF7BC
:10169000CFFEBFF34F8F08BD00800040F001FF1F59
:1016A00008B508210A48FFF79FFE420703D5094BFA
:1016B000186AFFF7BDFE18210548FFF795FE43079E
:1016C00003D5044B186EFFF7B3FEBFF34F8F08BD71
:1016D00000800040F001FF1F08B509210A48FFF70C
:1016E00083FE420703D5094B586AFFF7A1FE192173
:1016F0000548FFF779FE430703D5044B586EFFF703
:1017000097FEBFF34F8F08BD00800040F001FF1F20
:1017100008B50A210A48FFF767FE420703D5094BBF
:10172000986AFFF785FE1A210548FFF75DFE43071B
:1017300003D5044B986EFFF77BFEBFF34F8F08BDB8
:1017400000800040F001FF1F08B50B210A48FFF799
:101750004BFE420703D5094BD86AFFF769FE1B21F0
:101760000548FFF741FE430703D5044BD86EFFF74A
:101770005FFEBFF34F8F08BD00800040F001FF1FE8
:1017800008B50C210A48FFF72FFE420703D5094B85
:10179000186BFFF74DFE1C210548FFF725FE430798
:1017A00003D5044B186FFFF743FEBFF34F8F08BDFF
:1017B00000800040F001FF1F08B50D210A48FFF727
:1017C00013FE420703D5094B586BFFF731FE1D216D
:1017D0000548FFF709FE430703D5044B586FFFF791
:1017E00027FEBFF34F8F08BD00800040F001FF1FB0
:1017F00008B50E210A48FFF7F7FD420703D5094B4C
:10180000986BFFF715FE1E210548FFF7EDFD430716
:1018100003D5044B986FFFF70BFEBFF34F8F08BD46
:1018200000800040F001FF1F08B50F210A48FFF7B4
:10183000DBFD420703D5094BD86BFFF7F9FD1F21EC
:101840000548FFF7D1FD430703D5044BD86FFFF7D9
:10185000EFFDBFF34F8F08BD00800040F001FF1F78
:1018600008B5114B984215D003F58053984213D018
:1018700003F58053984211D003F5805398420FD05E
:1018800003F5704398420DD0084B094A09488E2150
:1018900000F0A0FE002008BD0120FCE70220FAE7CE
:1018A0000320F8E70420F6E700400C40B8380000B9
:1018B0008B390000703900002DE9F04704460D46D1
:1018C00029B9774B774AE421774800F083FE0B680B
:1018D0001BB9764B734AE521F6E77549884219D062
:1018E00001F58051884215D001F58051884213D00E
:1018F00001F5805188420FD001F57041884214BF34
:101900004FF0FF310121287A884207DD694B654A93
:10191000E721D9E70821F6E70121F4E7687A884250
:1019200003DD654B5F4AE821CEE700264FEA8309D5
:1019300098464FF0040C3746B2FBF9F189B2002902
:1019400008BF012101F1010A0CFB01F00CFB0AFEAA
:10195000B2FBF0F0B2FBFEFEC01AA3EB0E0E864502
:101960003CBF70461FFA8AF1404598BF66460CF1AD
:10197000010C9CBF80460F46BCF1210F9944DBD17E
:101980006422B3FBF2F303EB43034345C0F08580CD
:101990002046FFF765FF494B53F820100B0C03F16D
:1019A000804303F58E2389B2186801228A400243DE
:1019B0001A60A368297923F44023A3602368321FA7
:1019C000032A98BF43F40033013E360623F01F2359
:1019D00023F0FF0306F0F8561E43C7F30C073E43FF
:1019E0002660236823F000532360A268EB7B22F477
:1019F000E2621B0222F0070203F4E0630A431A4387
:101A0000AB7B9B0003F00403134309B143F01003C5
:101A1000A360EB7922685B0322F4005203F40053C5
:101A2000134323606A7A2B7A43EA0243E361A36992
:101A30002A7B43F08803A361A36943F44043A36175
:101A40006B7B61691B01520103F0100302F020025D
:101A500013430B436361AB7A1BB1636943F0080323
:101A60006361EB7A1BB1636943F001036361A97998
:101A7000134B144A002918BF1A46636813432A7C83
:101A80006360A3680AB143F400236A7C0AB143F49B
:101A90008023A3600020BDE8F08740F22150FAE7E0
:101AA000293600009E39000070390000DD38000042
:101AB00000400C40F238000031390000EC390000E1
:101AC00000C01FE000C01FC008B530B90C4B0D4A64
:101AD0000D484FF4F17100F07DFD4FF4E1330360E8
:101AE00000230381037143718371C3718372C372D5
:101AF000437303738373C3730374437408BD00BFDC
:101B000029360000AA390000703900004268836954
:101B10001B0C03F0C30343EA0200704782690B0405
:101B200022F4403203F44033134310B58361436819
:101B300023F0404301F0004223F4F8131343084A12
:101B40000A40134323F4404301F4404213434360EB
:101B5000FFF7DCFF084240F21A5008BF002010BD1A
:101B600000001F4008B519B10A44914207D108BDD1
:101B7000064B074A074840F2A92100F02BFD4368B5
:101B80001B02FCD511F8013BC360EEE7C337000030
:101B9000C23900007039000038B5044621B18D18F3
:101BA000A94233D1002012E01C4B1D4A1D484FF4BE
:101BB0002E7100F00FFD2046FFF7A8FF020307D5A6
:101BC0004FF400212046FFF7A9FF40F21D5038BD19
:101BD000430307D54FF480212046FFF79FFF40F2D3
:101BE0001E50F4E7820307D54FF400312046FFF77B
:101BF00095FF40F21F50EAE7C30307D54FF4803149
:101C00002046FFF78BFF4FF4A460E0E7E3691B0E6B
:101C1000D1D0E36801F8013BC2E700BFC337000041
:101C2000D73900007039000008B5044A044B116828
:101C30001B6804489847BFF34F8F08BD7002FF1F11
:101C40008402FF1F00400C4008B5044A044B516851
:101C50001B6804489847BFF34F8F08BD7002FF1FF1
:101C60008402FF1F00500C4008B5044A044B9168E1
:101C70001B6804489847BFF34F8F08BD7002FF1FD1
:101C80008402FF1F00600C4008B5044A044BD16871
:101C90001B6804489847BFF34F8F08BD7002FF1FB1
:101CA0008402FF1F00700C4008B5044A044B116900
:101CB0001B6804489847BFF34F8F08BD7002FF1F91
:101CC0008402FF1F00600D40014800F017B800BFFC
:101CD0008802FF1F7047704701468022014800F0CC
:101CE00023B800BF8802FF1F0346024601210148B6
:101CF00000F022BC8802FF1F7047000008B530B911
:101D0000064B074A074840F2032100F063FC4FF4FA
:101D10008C720021BDE8084000F0C4BCA84400005B
:101D200028440000BB440000F8B530B97A4B7B4A28
:101D300040F22D217A4800F04DFC21B9794B774AC9
:101D400040F22E21F6E7C02A45D0B2F5807F44D07C
:101D5000802A40F0DE800A23036000F1080343601C
:101D600052090025AA4201F1040138D102680C2A67
:101D700047D00E2A7CD00A2A2BD16B4E6B4D002403
:101D8000D86856F824101A684A40C0F30721013475
:101D9000695C4A40010E0A2C695C82EA0142C1B2C8
:101DA00003F11003695C82EA0162C0F30741695CD8
:101DB00082EA012253F80C1C1A6082EA010253F8ED
:101DC000081C5A6082EA01029A6082EA0002DA6024
:101DD000D6D100209FE00C23BEE70E23BCE711F80C
:101DE000024C11F8036C240444EA062411F8046C34
:101DF000344311F8016C44EA066443F82540013588
:101E0000B0E7494E494D0024586956F824101A6825
:101E10004A40C0F307210134695C4A40010E082C96
:101E2000695C82EA0142C1B203F11803695C82EA8B
:101E30000162C0F30741695C82EA012253F8141C75
:101E40001A6082EA010253F8101C5A6082EA010209
:101E500053F80C1C9A6082EA010253F8081CDA60FD
:101E600082EA01021A6182EA00025A61CCD1B0E72B
:101E70002D4D2E490024D8691E6855F824201F696D
:101E80007240C0F3072601348E5D7240060E072CA7
:101E90008E5D82EA0642C6B203F120038E5D82EABD
:101EA0000662C0F307468E5D82EA062253F81C6C78
:101EB0001A6082EA060253F8186C5A6082EA060237
:101EC00053F8146C9A6082EA0602D6B2DA608E5D2C
:101ED00086EA07064FEA1267CF5D86EA0766C2F315
:101EE0000727C2F30742CF5D8A5C86EA072686EAA7
:101EF000024253F80C6C1A6182EA060253F8086C2D
:101F00005A6182EA060280EA02009A61D861B2D17F
:101F10005FE76FF01F00F8BDA844000039440000DF
:101F2000BB440000DE440000003F0000003A000017
:101F30002DE9F04F8BB043680D6802951C68076867
:101F40006C404D68039502945C686C408D68049504
:101F500003949C686C400494CC68059403F11001D0
:101F6000DB68634005937F10AF4B013FDDE904C49C
:101F7000DDE902A9200E002F53F820505FFA8AF005
:101F800053F8200080EA3520C9F3072553F825507F
:101F900080EA3560CCF3074553F8255080EA354593
:101FA000086880EA0500C0F307450095C0F30725DF
:101FB00001954FEA1C655FFA80F853F8256006909A
:101FC000E5B24FEA106E53F8255085EA3625CAF37C
:101FD000072653F8266085EA3665C9F3074653F8A5
:101FE000266085EA36454FEA19665FFA89F953F8A3
:101FF00026B053F829905FFA8CF6CCF3072C53F8EF
:10200000266053F82CC086EA3B26C4F3072BC4F3A2
:10201000074453F82BB053F8244086EA3B66CAF3D2
:10202000074B4FEA1A6A53F82BB053F82AA089EAF3
:102030003A2A8AEA3C6C86EA3B468CEA344C00F346
:1020400088804B6879488CEA030307938C6810F802
:102050000EE066400896CF686F403C0E09970D6908
:1020600010F804C010F808406C40C3F3072584EA58
:102070000C64455D84EA0524C6F30745455D84EAA2
:1020800005444D69029485EA0E6EDDB2455D8EEA27
:10209000050EC6F30725455D8EEA052EC7F30745F5
:1020A000455D8EEA054E009DCDF80CE010F80580E8
:1020B0008D6985EA0848F5B2360E455D88EA05085F
:1020C0001D0EC3F30743455DC35C88EA0568C7F38B
:1020D0000725FFB2455D88EA0528019DCDF81080EF
:1020E00010F805C0CD69C15D85EA0C254D40815DC4
:1020F00085EA016585EA0343210A0593147051704E
:10210000210C91704FEA1E2151714FEA1E419171CD
:102110004FEA182151724FEA184191724FEA186143
:10212000D172190A4FEA1E6013735173240E190CF1
:102130001B0ED071917302A8D47082F804E082F86B
:102140000880D373202100F02BFA00200BB0BDE8EB
:10215000F08F48688CEA000CCDF81CC08C68744085
:102160000894C8686840050E09900E6953F82590D8
:1021700053F828507540CCF3072685EA392553F8E3
:10218000266085EA3665C4F30746203153F8266099
:1021900085EA364502955FFA8CF551F80C6C53F8D8
:1021A0002550754053F82E6085EA3625C4F307267E
:1021B000013F53F8266085EA3665C0F3074653F8B9
:1021C000266085EA36450395E5B251F8086C53F868
:1021D00025506E404FEA1C65240E53F8255086EAC0
:1021E0003526C0F30725C0B253F8255053F8200018
:1021F00086EA3566009D53F8255086EA35460496F2
:1022000053F8245051F8044C84EA35244440019892
:1022100053F8200084EA3064CCF3074053F82000E0
:1022200084EA30440594A1E6003B0000003A000037
:102230002DE9F04F8BB043680D6802951C68066865
:102240006C404D68039502945C686C408D68049501
:1022500003949C686C400494CC68059403F11001CD
:10226000DB68634005937610B14B013EDDF80C90BE
:10227000DDF808C04FEA1960DDE904A753F82040F3
:102280005FFA8CF0FDB253F8200053F8255080EA35
:102290003420C7F30724002E53F8244080EA34602A
:1022A000CAF3074453F8244080EA3444086880EABB
:1022B0000400C0F3074400944FEA106401944FEA0D
:1022C0001C645FFA80F853F82440069085EA3425B0
:1022D000CAF30724C0F3072E53F8244085EA346577
:1022E000C9F3074453F8244085EA34454FEA17649C
:1022F000C7F3074753F824B053F827705FFA8AF4FE
:102300004FEA1A6A53F8244053F82AA084EA3B247F
:10231000C9F3072B5FFA89F953F82BB053F82990CA
:1023200084EA3B64CCF3074BCCF3072C53F82BB077
:1023300053F82CC089EA3A2A8AEA3C6C84EA3B4486
:102340008CEA374C00F388804B687A4F8CEA0300A4
:1023500007908B6817F80EE05C400894CE68030E77
:102360007540099517F803C017F808600B695E40BF
:10237000C5F3072386EA0C66FB5C86EA0326C4F3F2
:102380000743FB5C86EA03464B69029683EA0E2EFE
:10239000C3B2FB5C8EEA030E230EFB5C8EEA036E77
:1023A000C5F30743FB5C8EEA034E009BCDF80CE0BF
:1023B00017F803808B6983EA0848E3B2C4F3072463
:1023C000FB5C88EA03082B0EEDB2FB5C7D5D88EABE
:1023D0000368C0F30723FB5C88EA0328019BCDF860
:1023E000108017F803C0CB6983EA0C635D403B5D46
:1023F00085EA0325C0F30743310AFB5C85EA034302
:10240000059316705170310C91704FEA1E21517175
:102410004FEA1E4191714FEA182151724FEA18415B
:1024200091724FEA1861D172190A4FEA1E60137354
:102430005173340E190C1B0ED071917302A8D47015
:1024400082F804E082F80880D373202100F0A8F815
:1024500000200BB0BDE8F08F486853F828708CEA74
:10246000000CCDF81CC0886860400890CC686C40B7
:102470004FEA1C65099453F825900D696F40C4F329
:10248000072587EA392753F8255087EA3567C0F3CF
:102490000745203153F8255087EA35475FFA8CF518
:1024A000029751F80C7C53F825506F40050E013E01
:1024B00053F8255087EA352753F82E5087EA3567B9
:1024C000C4F3074553F8255087EA3547C5B203974B
:1024D00051F8087C53F825506F40250EE4B253F8AC
:1024E000255053F8244087EA3527CCF30725C0F35D
:1024F000072053F8255053F8200087EA3567009DE0
:1025000053F8255087EA3547019D049753F8257005
:1025100051F8045C85EA3725654085EA3065CCF3DF
:10252000074053F8200085EA304505959EE600BF38
:1025300028400000283F000010B50C4611461A46FE
:1025400030B9114B114A40F2F631114800F042F80F
:1025500021B9104B0D4A40F2F731F6E723B90E4B83
:102560000A4A4FF47E71F0E7012C04D90B4B074A5D
:1025700040F2FA31E9E703D1BDE81040FFF7D8BCDB
:10258000BDE81040FFF754BEA844000050440000CE
:10259000BB440000664400007B44000091440000FE
:1025A00010B50A4661B128B9064B074A07484521CC
:1025B00000F010F8064B00211B68BDE810401847DA
:1025C00010BD00BF0A450000F1440000294500008D
:1025D0000800FF1F1FB51C46094B1B680546D8683D
:1025E00052B1084B0091CDE9013207492B462246F2
:1025F00000F022F800F09CFC044B1A46F2E700BF02
:102600000C00FF1F56450000634500009145000087
:1026100008B5074B044613B10021AFF30080054B0A
:102620001868836A03B19847204600F0A7FF00BFEF
:1026300000000000944500000EB403B5014603AB52
:10264000054853F8042B0068019300F003F902B029
:102650005DF804EB03B070470C00FF1F70B50D4E22
:102660000D4CA41BA4100025A54209D10B4E0C4C07
:1026700001F0DCFFA41BA4100025A54205D170BD0C
:1026800056F8253098470135EEE756F8253098473B
:102690000135F2E74C4600004C4600004C46000075
:1026A0005046000002440346934200D1704703F8AD
:1026B000011BF9E738B50546002945D051F8043C1F
:1026C0000C1F002BB8BFE41800F018FE1F4A136857
:1026D000104633B9636014602846BDE8384000F006
:1026E0000EBEA3420CD921686218934204BF1A6837
:1026F0005B68636004BF521822600460ECE7134615
:102700005A680AB1A242FAD919685818A0420BD1E6
:1027100020680144581882421960DDD1106852685F
:102720005A6001441960D7E702D90C232B60D3E724
:10273000206821188A4204BF11685268626004BF91
:10274000091821605C60C7E738BD00BFA003FF1F08
:1027500070B5CD1C25F0030508350C2D38BF0C25B0
:10276000002D064601DBA94203D90C23336000206B
:1027700070BD00F0C3FD214A1468214691B9204C78
:1027800023681BB9304600F003FB20602946304621
:1027900000F0FEFA431C24D10C233360304600F0D5
:1027A000AEFDE4E70B685B1B18D40B2B0FD90B6055
:1027B000CD50CC18304600F0A2FD04F10B00231DD3
:1027C00020F00700C31AD3D05A42E250D0E78C421F
:1027D0004B6816BF636013600C46EBE70C46496814
:1027E000CCE7C41C24F00304A04205D0211A3046D3
:1027F00000F0CEFA0130CFD02560DBE7A003FF1F49
:10280000A403FF1F9368013B002B10B4936007DA09
:102810009469A34201DB0A2902D110BC00F0C8BAB6
:102820001368581C10601970084610BC7047F8B542
:1028300006460F461446D518AC4201D1002007E0E9
:102840003A4614F8011B3046FFF7DCFF431CF3D176
:10285000F8BD00002DE9F04F0C469DB017461D460F
:10286000064618B183690BB900F05AFC7C4B9C42B8
:1028700058D17468A38918075ED52369002B5BD0F3
:102880000023099320238DF8293030238DF82A3036
:1028900003954FF0010BB846454615F8013B0BB1C7
:1028A000252B54D1B8EB070A0BD053463A462146A4
:1028B0003046FFF7BCFF013000F0C280099B534453
:1028C000099398F80030002B00F0BA8000234FF0F5
:1028D000FF32CDE90523049307938DF853301A9303
:1028E000A846052218F8011B5E48FDF7B9FE049BB7
:1028F00078BBD90644BF20228DF853201A0744BF65
:102900002B228DF853202A782A2A2AD0079AA84603
:1029100000200A25414611F8013B303B092B69D9BB
:1029200060B324E0504B9C4201D1B468A2E74F4B06
:102930009C4208BFF4689DE72146304600F08AFAC1
:1029400000289DD04FF0FF301DB0BDE8F08FA846A5
:10295000A2E7444A801A0BFA00F018430490454657
:10296000BEE7039A111D12680391002A01DB07924A
:1029700004E0524243F002030792049398F80030B7
:102980002E2B0ED198F801302A2B38D1039B1A1D1B
:102990001B680392002BB8BF4FF0FF3308F1020809
:1029A0000593334D98F8001003222846FDF758FE92
:1029B00040B14023401B03FA00F0049B034308F19D
:1029C0000108049398F800102A488DF82810062270
:1029D00008F10107FDF744FE002837D0264B1BBB4A
:1029E000039B073323F0070308330393099B4B44EE
:1029F000099350E705FB0232012088468AE700234D
:102A000008F10108059319460A25404610F8012BE4
:102A1000303A092A03D9002BC3D00591C1E705FB41
:102A2000012101238046F0E703AB00932246134BBC
:102A300004A93046AFF30080B0F1FF3F8146D5D105
:102A4000A3895B063FF57EAF09987DE703AB009352
:102A500022460A4B04A9304600F088F8ECE700BF94
:102A6000EC450000984500000C460000CC450000F5
:102A70009E450000A2450000000000002F28000035
:102A80002DE9F04791461F468A680B69DDF82080E2
:102A90009342B8BF1346C9F8003091F84320064668
:102AA0000C4612B10133C9F800302368990642BFC1
:102AB000D9F800300233C9F80030256815F0060552
:102AC00007D104F1190AE368D9F800209B1AAB4238
:102AD00028DC94F843302268003318BF01239206A3
:102AE0002DD404F1430239463046C047013020D08E
:102AF0002368E568D9F8002003F00603042B08BF1B
:102B0000AD1AA36822690CBF25EAE575002593423A
:102B1000C4BF9B1AED184FF000091A344D451AD165
:102B2000002008E00123524639463046C0470130B4
:102B300003D14FF0FF30BDE8F0870135C3E7E1185E
:102B40005A1C302081F84300224494F8451082F842
:102B500043100233C5E70123224639463046C047B9
:102B60000130E6D009F10109D8E700002DE9F04372
:102B700001F1430C0C46097E85B06E2917460646C6
:102B800098460C9A00F0B38022D8632936D00AD830
:102B9000002900F0B980582900F0838004F1420533
:102BA00084F8421032E0642901D06929F6D1206806
:102BB0001368050603F104012AD51B681160002B78
:102BC00003DA2D225B4284F843206F480A2239E061
:102BD000732900F09D8008D86F2920D07029DDD19D
:102BE000236843F02003236003E0752917D0782978
:102BF000D4D1782384F84530644855E01368191D12
:102C00001B68116004F1420584F8423001238CE016
:102C10001B68116010F0400F18BF1BB2CFE713689C
:102C20002568181D1060280601D51B6802E068069B
:102C3000FBD51B8854486F2914BF0A2208220021A3
:102C400084F843106568A560002DC0F29580216866
:102C500021F004012160002B3DD1002D40F08E8039
:102C60006546082A0BD12368DB0708D5236962680B
:102C70009A42DEBF302305F8013C05F1FF35ACEB8D
:102C800005032361CDF800803B4603AA2146304668
:102C9000FFF7F6FE01304DD14FF0FF3005B0BDE833
:102CA000F083394884F84510136821681D1D1B689E
:102CB00015600A060BD5CA0744BF41F02001216008
:102CC0001BB9226822F0200222601022B7E74D06CD
:102CD00048BF9BB2EFE76546B3FBF2F102FB11334D
:102CE000C35C05F8013D0B460029F5D1B9E713682F
:102CF00025686169181D106028061B6801D51960D8
:102D000002E06A06FBD51980002323616546B9E716
:102D10001368191D11601D68626800212846FDF7BF
:102D20009FFC08B1401B606063682361002384F846
:102D30004330A7E723692A4639463046C047013069
:102D4000AAD023689B0713D4E068039B9842B8BFBE
:102D50001846A3E701234A4639463046C0470130AA
:102D60009AD00135E368039A9B1AAB42F2DCEBE799
:102D7000002504F11909F5E7002BACD1037884F89C
:102D8000423004F142056CE7A9450000BA45000055
:102D900038B5064C002305460846236000F0D8FBF2
:102DA000431C02D1236803B12B6038BDAC03FF1F65
:102DB000F8B50E461446054618B183690BB900F004
:102DC000AFF9214B9C422AD16C68A369A360A38907
:102DD0001A072ED5236963B323692068C01A636973
:102DE000F6B28342374604DC2146284600F02EF92D
:102DF00028BBA368013BA36023685A1C22601E7095
:102E000063690130834204D0A389DB0719D50A2EF8
:102E100017D12146284600F019F990B10FE00B4B6D
:102E20009C4201D1AC68D0E7094B9C4208BFEC68DA
:102E3000CBE72146284600F00DF80028CCD04FF013
:102E4000FF373846F8BD00BFEC4500000C460000D7
:102E5000CC450000324B70B51D6806460C4625B1C6
:102E6000AB6913B9284600F05BF92E4B9C420FD199
:102E70006C68B4F90C309AB215072CD4D00611D472
:102E80000922326043F04003A3814FF0FF303EE05F
:102E9000254B9C4201D1AC68EBE7244B9C4208BF18
:102EA000EC68E6E7510712D5616B41B104F14403C8
:102EB000994202D03046FFF7FDFB00236363A389EC
:102EC00023F02403A3810023636023692360A38983
:102ED00043F00803A38123694BB9A38903F420734A
:102EE000B3F5007F03D02146304600F0C7F9A28930
:102EF00012F001030CD00023A36063695B42A3615D
:102F0000236953B9B4F90C3013F08000BAD170BD05
:102F1000920758BF6369A360F2E70020F7E700BF9C
:102F20000C00FF1FEC4500000C460000CC450000E3
:102F300008B5062000F00CFA012000F01FFB00008D
:102F40008A892DE9F041054610070C4658D44B6894
:102F5000002B05DC0B6C002B02DC0020BDE8F081AF
:102F6000E66A002EF9D0002312F480522F68216AFD
:102F70002B6032D0606DA3895A0705D56368C01AEB
:102F8000636B0BB1236CC01A00230246E66A216A08
:102F90002846B047431CA38906D129681D2948D873
:102FA000294ACA40D60744D500226260D904226962
:102FB000226004D5421C01D12B6803B96065616BA6
:102FC0002F600029C9D004F14403994202D0284659
:102FD000FFF770FB00206063C0E701232846B0477D
:102FE000411CC8D12B68002BC5D01D2B01D0162B3E
:102FF00001D12F60B1E7A38943F04003A381ADE77E
:103000000F69002FA9D093070E6808BF4B690F60A6
:1030100018BF0023A6EB07088B60B8F1000F9CDDFA
:1030200043463A46216AA66A2846B047002806DC8D
:10303000A38943F04003A3814FF0FF308EE707449C
:10304000A8EB0008E9E700BF0100402038B50B6994
:1030500005460C46DBB118B183690BB900F060F886
:103060000C4B9C4209D16C68B4F90C307BB1214601
:103070002846BDE83840FFF763BF074B9C4201D1AB
:10308000AC68F1E7054B9C4208BFEC68ECE7002018
:1030900038BD00BFEC4500000C460000CC450000E8
:1030A000002310B50446C0E9003383608181436684
:1030B000C281C0E904338361194608225C30FFF7FE
:1030C000F1FA054B6362054BA362054BE362054BC6
:1030D0002462236310BD00BF89330000AB330000BE
:1030E000E333000007340000014900F085B800BF59
:1030F0004D30000070B54A1E682555430E4605F157
:103100007401FFF725FB044640B10021C0E9001619
:103110000C30A06005F16802FFF7C4FA204670BDCC
:10312000836910B5044633BBC0E912330365124B03
:10313000124A1B688262984204BF0123836100F037
:103140001FF86060204600F01BF8A060204600F0E9
:1031500017F80022E06004216068FFF7A1FF012258
:103160000921A068FFF79CFF02221221E068FFF707
:1031700097FF0123A36110BD94450000E9300000D2
:10318000F8B51B4B1E68B369074613B93046FFF705
:10319000C7FF4836D6E90134013B03D5336833B164
:1031A0003668F7E7B4F90C506DB16834F4E70421E0
:1031B0003846FFF79FFF30600028F1D10C233B60B9
:1031C00004462046F8BD0B4B6566C4E90055A56072
:1031D000C4E90335C4E905550822294604F15C0019
:1031E000FFF760FAC4E90D55C4E91255E9E700BFDD
:1031F000944500000100FFFF2DE9F8438046894611
:1032000000F14804002614B93046BDE8F883D4E93B
:103210000175013F01D52468F5E7AB89012B07D97A
:10322000B5F90E30013303D029464046C84706435E
:103230006835EEE770B50E46B1F90E10002996B06C
:1032400014461D4607DA00232B60B3891A0610D4F2
:103250004FF480630EE06A4600F0FCF80028F2DBD1
:10326000019A02F47042A2F500535A425A412A6070
:10327000EEE740230020236016B070BD8B8973B544
:103280009D0706460C4607D504F1470323602361DA
:103290000123636102B070BD01AB6A46FFF7CAFF4C
:1032A000009905463046FFF753FA48B9B4F90C3097
:1032B0009A05EFD423F0030343F00203A381E3E76D
:1032C0000D4BB362A389206043F08003A381009B70
:1032D0006361019B20615BB1B4F90E10304600F0D0
:1032E000CBF828B1A38923F0030343F00103A381A2
:1032F000A3891D43A581CDE7E930000070477047E1
:103300001F2938B504460D4604D9162303604FF033
:10331000FF3038BD426C12B152F821304BB9204613
:1033200000F030F82A4601462046BDE8384000F05B
:1033300017B8012B0AD0591C03D1162303600120B2
:10334000E7E7002442F82540284698470020E0E7B8
:10335000024B01461868FFF7D3BF00BF0C00FF1FE8
:1033600038B5074C0023054608461146236000F097
:10337000D7F8431C02D1236803B12B6038BD00BFCE
:10338000AC03FF1F00F0BCB810B50C46B1F90E102D
:1033900000F094F80028ABBF636DA3891B1823F4D9
:1033A0008053ACBF6365A38110BD2DE9F0411F467A
:1033B0008B89DB0505460C46164605D502230022FF
:1033C000B1F90E1000F068F8A389B4F90E1023F4D7
:1033D0008053A38132463B462846BDE8F04100F0C9
:1033E00017B810B50C46B1F90E1000F055F8431C93
:1033F000A38915BF606523F4805343F48053A381F0
:1034000018BFA38110BDB1F90E1000F013B8000071
:1034100038B5074C054608461146002222601A4678
:1034200000F0A4F8431C02D1236803B12B6038BD1F
:10343000AC03FF1F38B5064C002305460846236041
:1034400000F04EF8431C02D1236803B12B6038BD55
:10345000AC03FF1F38B5074C00230546084611464C
:10346000236000F045F8431C02D1236803B12B60B0
:1034700038BD00BFAC03FF1F38B5064C002305461E
:103480000846236000F044F8431C02D1236803B1CE
:103490002B6038BDAC03FF1F38B5074C0546084606
:1034A0001146002222601A4600F042F8431C02D165
:1034B000236803B12B6038BDAC03FF1F38B5074C40
:1034C000054608461146002222601A4600F038F8E8
:1034D000431C02D1236803B12B6038BDAC03FF1F2E
:1034E000024B58221A604FF0FF307047AC03FF1FA9
:1034F000024B58221A604FF0FF307047AC03FF1F99
:10350000024B58221A604FF0FF307047AC03FF1F88
:10351000024B58221A600020704700BFAC03FF1F07
:10352000024B58221A604FF0FF307047AC03FF1F68
:10353000024B58221A604FF0FF307047AC03FF1F58
:10354000024B58221A604FF0FF307047AC03FF1F48
:10355000044A05491368002B08BF0B461844106045
:1035600018467047A803FF1F00000020024B582296
:103570001A604FF0FF307047AC03FF1FFEE700BF3B
:103580002B7E151628AED2A6ABF7158809CF4F3C77
:103590003031323334353637383941424344454689
:1035A00074726E675F476574496E7374616E6365AC
:1035B00000696E7374616E6365203C204152524114
:1035C000595F53495A4528735F74726E674261733D
:1035D000657329002E2E2F2E2F68616C2F6B3832C9
:1035E000662F66736C5F74726E672E6300696E730C
:1035F00074616E6365203C2041525241595F5349CA
:103600005A4528735F6770696F426173657329005B
:103610002E2E2F2E2F68616C2F6B3832662F66731B
:103620006C5F6770696F2E6300636F6E6669670019
:103630004750494F5F50696E496E697400735F73FC
:10364000616948616E646C655B305D5B315D007320
:103650005F73616948616E646C655B305D5B305DB2
:1036600000696E7374616E6365203C204152524163
:10367000595F53495A4528735F73616942617365A5
:103680007329002E2E2F2E2F68616C2F6B38326617
:103690002F66736C5F7361692E6300493253305F2C
:1036A00054785F44726976657249525148616E641C
:1036B0006C657200493253305F52785F44726976AC
:1036C000657249525148616E646C657200696E732F
:1036D00074616E6365203C2041525241595F5349E9
:1036E0005A4528735F64737069426173657329007A
:1036F0002E2E2F2E2F68616C2F6B3832662F66733B
:103700006C5F647370692E6300675F6473706948EF
:10371000616E646C655B305D00675F6473706948FF
:10372000616E646C655B315D00675F6473706948EE
:10373000616E646C655B325D00535049305F44726A
:103740006976657249525148616E646C65720053C6
:103750005049315F44726976657249525148616ED1
:10376000646C657200535049325F447269766572C9
:1037700049525148616E646C657200735F7364688E
:103780006348616E646C655B305D0068616E646C9B
:1037900065002E2E2F2E2F68616C2F6B3832662F0E
:1037A00066736C5F736468632E630068616E646C3B
:1037B000652D3E636F6D6D616E640068616E646C53
:1037C000652D3E6461746100534448435F447269EF
:1037D00076657249525148616E646C6572000000F2
:1037E000107570000000A000000000000000000044
:1037F00068616E646C6520213D204E554C4C00691B
:103800006E7374616E6365203C2041525241595F72
:1038100053495A4528735F65646D614261736573EE
:1038200029002E2E2F2E2F68616C2F6B3832662FB9
:1038300066736C5F65646D612E63006368616E6EB4
:10384000656C203C2046534C5F46454154555245DB
:103850005F45444D415F4D4F44554C455F434841A2
:103860004E4E454C0074636420213D204E554C4C17
:1038700000282875696E7433325F7429746364207C
:103880002620307831465529203D3D2030004544E2
:103890004D415F4765744368616E6E656C5374613A
:1038A000747573466C6167730045444D415F4861B0
:1038B0006E646C6549525100696E7374616E636524
:1038C000203C2041525241595F53495A4528735F69
:1038D0006C707561727442617365732900636F6EF9
:1038E0006669672D3E62617564526174655F4270FE
:1038F000730046534C5F464541545552455F4C500A
:10390000554152545F4649464F5F53495A456E28C8
:103910006261736529203E3D20636F6E6669672D85
:103920003E74784669666F57617465726D61726B3B
:103930000046534C5F464541545552455F4C5055E7
:103940004152545F4649464F5F53495A456E28627B
:1039500061736529203E3D20636F6E6669672D3E69
:1039600072784669666F57617465726D61726B003B
:103970002E2E2F2E2F68616C2F6B3832662F6673B8
:103980006C5F6C70756172742E63004C50554152BF
:10399000545F476574496E7374616E6365004C5083
:1039A000554152545F496E6974004C505541525410
:1039B0005F47657444656661756C74436F6E6669D4
:1039C00067004C50554152545F5772697465426CA0
:1039D0006F636B696E67004C50554152545F52657E
:1039E0006164426C6F636B696E67000004002C10A9
:1039F00005002C1006002C1007002C1016002C10AF
:103A0000637C777BF26B6FC53001672BFED7AB769B
:103A1000CA82C97DFA5947F0ADD4A2AF9CA472C046
:103A2000B7FD9326363FF7CC34A5E5F171D83115B3
:103A300004C723C31896059A071280E2EB27B275D4
:103A400009832C1A1B6E5AA0523BD6B329E32F844C
:103A500053D100ED20FCB15B6ACBBE394A4C58CF44
:103A6000D0EFAAFB434D338545F9027F503C9FA818
:103A700051A3408F929D38F5BCB6DA2110FFF3D2E6
:103A8000CD0C13EC5F974417C4A77E3D645D19739A
:103A900060814FDC222A908846EEB814DE5E0BDB94
:103AA000E0323A0A4906245CC2D3AC629195E479CB
:103AB000E7C8376D8DD54EA96C56F4EA657AAE0825
:103AC000BA78252E1CA6B4C6E8DD741F4BBD8B8AC0
:103AD000703EB5664803F60E613557B986C11D9E26
:103AE000E1F8981169D98E949B1E87E9CE5528DF9D
:103AF0008CA1890DBFE6426841992D0FB054BB16C9
:103B0000C66363A5F87C7C84EE777799F67B7B8D22
:103B1000FFF2F20DD66B6BBDDE6F6FB191C5C55470
:103B20006030305002010103CE6767A9562B2B7D10
:103B3000E7FEFE19B5D7D7624DABABE6EC76769AC9
:103B40008FCACA451F82829D89C9C940FA7D7D8777
:103B5000EFFAFA15B25959EB8E4747C9FBF0F00B53
:103B600041ADADECB3D4D4675FA2A2FD45AFAFEADF
:103B7000239C9CBF53A4A4F7E47272969BC0C05BC5
:103B800075B7B7C2E1FDFD1C3D9393AE4C26266A86
:103B90006C36365A7E3F3F41F5F7F70283CCCC4F67
:103BA0006834345C51A5A5F4D1E5E534F9F1F108A8
:103BB000E2717193ABD8D873623131532A15153F36
:103BC0000804040C95C7C752462323659DC3C35EF2
:103BD00030181828379696A10A05050F2F9A9AB51E
:103BE0000E070709241212361B80809BDFE2E23D9C
:103BF000CDEBEB264E2727697FB2B2CDEA75759FD4
:103C00001209091B1D83839E582C2C74341A1A2EFA
:103C1000361B1B2DDC6E6EB2B45A5AEE5BA0A0FBB5
:103C2000A45252F6763B3B4DB7D6D6617DB3B3CEA8
:103C30005229297BDDE3E33E5E2F2F7113848497A5
:103C4000A65353F5B9D1D16800000000C1EDED2CA9
:103C500040202060E3FCFC1F79B1B1C8B65B5BED8E
:103C6000D46A6ABE8DCBCB4667BEBED97239394B9A
:103C7000944A4ADE984C4CD4B05858E885CFCF4A85
:103C8000BBD0D06BC5EFEF2A4FAAAAE5EDFBFB1620
:103C9000864343C59A4D4DD7663333551185859478
:103CA0008A4545CFE9F9F91004020206FE7F7F81BB
:103CB000A05050F0783C3C44259F9FBA4BA8A8E305
:103CC000A25151F35DA3A3FE804040C0058F8F8AAF
:103CD0003F9292AD219D9DBC70383848F1F5F504B6
:103CE00063BCBCDF77B6B6C1AFDADA7542212163B7
:103CF00020101030E5FFFF1AFDF3F30EBFD2D26D96
:103D000081CDCD4C180C0C1426131335C3ECEC2FBD
:103D1000BE5F5FE1359797A2884444CC2E171739D0
:103D200093C4C45755A7A7F2FC7E7E827A3D3D47D7
:103D3000C86464ACBA5D5DE73219192BE6737395FC
:103D4000C06060A0198181989E4F4FD1A3DCDC7FB9
:103D500044222266542A2A7E3B9090AB0B888883AB
:103D60008C4646CAC7EEEE296BB8B8D32814143C6B
:103D7000A7DEDE79BC5E5EE2160B0B1DADDBDB76EB
:103D8000DBE0E03B64323256743A3A4E140A0A1EC3
:103D9000924949DB0C06060A4824246CB85C5CE4B2
:103DA0009FC2C25DBDD3D36E43ACACEFC46262A60A
:103DB000399191A8319595A4D3E4E437F279798BC0
:103DC000D5E7E7328BC8C8436E373759DA6D6DB720
:103DD000018D8D8CB1D5D5649C4E4ED249A9A9E0F8
:103DE000D86C6CB4AC5656FAF3F4F407CFEAEA2573
:103DF000CA6565AFF47A7A8E47AEAEE91008081846
:103E00006FBABAD5F07878884A25256F5C2E2E7265
:103E1000381C1C2457A6A6F173B4B4C797C6C65164
:103E2000CBE8E823A1DDDD7CE874749C3E1F1F21F4
:103E3000964B4BDD61BDBDDC0D8B8B860F8A8A8571
:103E4000E07070907C3E3E4271B5B5C4CC6666AA07
:103E5000904848D806030305F7F6F6011C0E0E122B
:103E6000C26161A36A35355FAE5757F969B9B9D0F8
:103E70001786869199C1C1583A1D1D27279E9EB964
:103E8000D9E1E138EBF8F8132B9898B322111133EC
:103E9000D26969BBA9D9D970078E8E89339494A74A
:103EA0002D9B9BB63C1E1E2215878792C9E9E920EF
:103EB00087CECE49AA5555FF50282878A5DFDF7A4E
:103EC000038C8C8F59A1A1F8098989801A0D0D17CF
:103ED00065BFBFDAD7E6E631844242C6D06868B82B
:103EE000824141C3299999B05A2D2D771E0F0F1188
:103EF0007BB0B0CBA85454FC6DBBBBD62C16163A85
:103F000001000000020000000400000008000000A2
:103F100010000000200000004000000080000000B1
:103F20001B0000003600000052096AD53036A53863
:103F3000BF40A39E81F3D7FB7CE339829B2FFF8791
:103F4000348E4344C4DEE9CB547B9432A6C2233D75
:103F5000EE4C950B42FAC34E082EA16628D924B226
:103F6000765BA2496D8BD12572F8F6648668981647
:103F7000D4A45CCC5D65B6926C704850FDEDB9DAA6
:103F80005E154657A78D9D8490D8AB008CBCD30A94
:103F9000F7E45805B8B34506D02C1E8FCA3F0F0270
:103FA000C1AFBD0301138A6B3A9111414F67DCEA3F
:103FB00097F2CFCEF0B4E67396AC7422E7AD3585B8
:103FC000E2F937E81C75DF6E47F11A711D29C589C2
:103FD0006FB7620EAA18BE1BFC563E4BC6D27920A4
:103FE0009ADBC0FE78CD5AF41FDDA8338807C731AD
:103FF000B11210592780EC5F60517FA919B54A0DA5
:104000002DE57A9F93C99CEFA0E03B4DAE2AF5B019
:10401000C8EBBB3C83539961172B047EBA77D62635
:10402000E169146355210C7D51F4A7507E4165531D
:104030001A17A4C33A275E963BAB6BCB1F9D45F185
:10404000ACFA58AB4BE303932030FA55AD766DF6DE
:1040500088CC7691F5024C254FE5D7FCC52ACBD705
:1040600026354480B562A38FDEB15A4925BA1B6755
:1040700045EA0E985DFEC0E1C32F7502814CF01237
:104080008D4697A36BD3F9C6038F5FE715929C9576
:10409000BF6D7AEB955259DAD4BE832D587421D373
:1040A00049E069298EC9C84475C2896AF48E797855
:1040B00099583E6B27B971DDBEE14FB6F088AD1758
:1040C000C920AC667DCE3AB463DF4A18E51A318266
:1040D0009751336062537F45B16477E0BB6BAE8428
:1040E000FE81A01CF9082B94704868588F45FD1973
:1040F00094DE6C87527BF8B7AB73D323724B02E22A
:10410000E31F8F576655AB2AB2EB28072FB5C203C2
:1041100086C57B9AD33708A5302887F223BFA5B27E
:1041200002036ABAED16825C8ACF1C2BA779B4927F
:10413000F307F2F04E69E2A165DAF4CD0605BED5CB
:10414000D134621FC4A6FE8A342E539DA2F355A01B
:10415000058AE132A4F6EB750B83EC394060EFAAD7
:104160005E719F06BD6E10513E218AF996DD063DB7
:10417000DD3E05AE4DE6BD4691548DB571C45D057D
:104180000406D46F605015FF1998FB24D6BDE9973B
:10419000894043CC67D99E77B0E842BD07898B88B8
:1041A000E7195B3879C8EEDBA17C0A477C420FE94E
:1041B000F8841EC90000000009808683322BED4878
:1041C0001E1170AC6C5A724EFD0EFFFB0F853856F7
:1041D0003DAED51E362D39270A0FD964685CA6215D
:1041E0009B5B54D124362E3A0C0A67B19357E70FE4
:1041F000B4EE96D21B9B919E80C0C54F61DC20A27D
:104200005A774B691C121A16E293BA0AC0A02AE523
:104210003C22E043121B171D0E090D0BF28BC7AD9C
:104220002DB6A8B9141EA9C857F11985AF75074C4A
:10423000EE99DDBBA37F60FDF701269F5C72F5BCA4
:1042400044663BC55BFB7E348B432976CB23C6DCBF
:10425000B6EDFC68B8E4F163D731DCCA426385107F
:104260001397224084C61120854A247DD2BB3DF895
:10427000AEF93211C729A16D1D9E2F4BDCB230F370
:104280000D8652EC77C1E3D02BB3166CA970B999A7
:10429000119448FA47E96422A8FC8CC4A0F03F1AA4
:1042A000567D2CD8223390EF87494EC7D938D1C1DB
:1042B0008CCAA2FE98D40B36A6F581CFA57ADE284B
:1042C000DAB78E263FADBFA42C3A9DE45078920D0C
:1042D0006A5FCC9B547E4662F68D13C290D8B8E8D4
:1042E0002E39F75E82C3AFF59F5D80BE69D0937CA7
:1042F0006FD52DA9CF2512B3C8AC993B10187DA757
:10430000E89C636EDB3BBB7BCD2678096E5918F4C5
:10431000EC9AB701834F9AA8E6956E65AAFFE67EF0
:1043200021BCCF08EF15E8E6BAE79BD94A6F36CE35
:10433000EA9F09D429B07CD631A4B2AF2A3F2331F9
:10434000C6A5943035A266C0744EBC37FC82CAA69E
:10435000E090D0B033A7D815F104984A41ECDAF7D1
:104360007FCD500E1791F62F764DD68D43EFB04D81
:10437000CCAA4D54E49604DF9ED1B5E34C6A881B69
:10438000C12C1FB84665517F9D5EEA04018C355DE6
:10439000FA877473FB0B412EB3671D5A92DBD2521E
:1043A000E91056336DD647139AD7618C37A10C7A32
:1043B00059F8148EEB133C89CEA927EEB761C935A5
:1043C000E11CE5ED7A47B13C9CD2DF5955F2733FD1
:1043D0001814CE7973C737BF53F7CDEA5FFDAA5BD8
:1043E000DF3D6F147844DB86CAAFF381B968C43E01
:1043F0003824342CC2A3405F161DC372BCE2250CC6
:10440000283C498BFF0D954139A80171080CB3DE9A
:10441000D8B4E49C6456C1907BCB8461D532B6702D
:10442000486C5C74D0B857426D626564746C735F9D
:104430006165735F696E6974006D626564746C7345
:104440005F6165735F7365746B65795F656E63004B
:104450006D626564746C735F6165735F63727970BC
:10446000745F65636200696E70757420213D202859
:1044700028766F6964202A293029006F7574707559
:104480007420213D202828766F6964202A2930294C
:10449000006D6F6465203D3D2031207C7C206D6F78
:1044A0006465203D3D20300063747820213D202844
:1044B00028766F6964202A293029002E2E2F2E2F6E
:1044C00063727970746F2F6D626564746C732F2FD3
:1044D0006C6962726172792F6165732E63006B651E
:1044E0007920213D202828766F6964202A293029E7
:1044F000006D626564746C735F706C6174666F727A
:104500006D5F7A65726F697A65006C656E203D3DFE
:104510002030207C7C2062756620213D2028287672
:104520006F6964202A293029002E2E2F2E2F6372C6
:104530007970746F2F6D626564746C732F2F6C6962
:1045400062726172792F706C6174666F726D5F75E3
:1045500074696C2E63002C2066756E6374696F6ECF
:104560003A2000617373657274696F6E202225733F
:1045700022206661696C65643A2066696C65202258
:104580002573222C206C696E6520256425732573A4
:104590000A0000001000FF1F232D302B2000686C44
:1045A0004C00656667454647003031323334353656
:1045B000373839414243444546003031323334358F
:1045C00036373839616263646566000000000000B8
:1045D00000000000000000000000000000000000DB
:1045E00000000000000000000000000000000000CB
:1045F00000000000000000000000000000000000BB
:1046000000000000000000000000000000000000AA
:10461000000000000000000000000000000000009A
:10462000000000000000000000000000F8B500BF1E
:10463000F8BC08BC9E467047F8B500BFF8BC08BC83
:044640009E467047DB
:084644000CBEFF7F0100000025
:04464C003504000031
:044650001104000051
:104654000A00000000004001A52600001000FF1F12
:1046640000000000EC4500000C460000CC450000B2
:104674000000000000000000000000000000000036
:104684000000000000000000000000000000000026
:104694000000000000000000000000000000000016
:1046A4000000000000000000000000000000000006
:1046B40000000000000000000000000000000000F6
:04000003000004C530
:00000001FF
