:020000040800F2
:10000000003000201D16000865160008651600085F
:100010006516000865160008651600080000000057
:10002000000000000000000000000000651600084D
:100030006516000800000000651600086516000837
:1000400000000000000000000000000000000000B0
:1000500000000000000000000000000000000000A0
:100060000000000000000000000000000000000090
:100070000000000000000000000000000000000080
:100080000000000000000000000000000000000070
:100090000000000000000000000000000000000060
:1000A0000000000000000000000000000000000050
:1000B0000000000000000000000000000000000040
:1000C0000000000000000000000000000000000030
:1000D0000000000000000000000000000000000020
:1000E0000000000000000000000000000000000010
:1000F0000000000000000000000000000000000000
:1001000000000000000000000000000000000000EF
:1001100000000000000000000000000000000000DF
:1001200000000000000000000000000000000000CF
:1001300000000000000000000000000000000000BF
:1001400000000000000000000000000000000000AF
:10015000000000000000000000000000000000009F
:10016000000000000000000000000000000000008F
:10017000000000000000000000000000000000007F
:08018000000000000000000077
:100188000348044B834202D0034B03B1184770471E
:100198001002002010020020000000000548064957
:1001A8000B1AD90F01EBA301491002D0034B03B17D
:1001B80018477047100200201002002000000000BD
:1001C80010B5064C237843B9FFF7DAFF044B13B197
:1001D8000448AFF300800123237010BD10020020F3
:1001E800000000006816000808B5044B1BB104495C
:1001F8000448AFF30080BDE80840CFE700000000E6
:10020800140200206816000870B50D4E0D4D761BBF
:10021800B61006D00024013455F8043B9847A6428E
:10022800F9D1094E094D761B01F01AFAB61006D01D
:100238000024013455F8043B9847A642F9D170BD13
:10024800A4160008A4160008A8160008A41600089A
:10025800002070470278437843EA0223014A0020CD
:10026800138070470000002008B501F0D2F9002083
:1002780008BD08B501F0C7F9002008BD10B504464F
:1002880001F0C5F900F048FA204601F0BEF900F087
:100298004AFA204601F0BCF922461021722000F0EB
:1002A800DDF8002010BD000070B5044601F0AFF97C
:1002B8000B4E00253388AB4209D8204601F0A8F937
:1002C80022461021722000F0C9F8002070BD00F00D
:1002D80023FA204601F099F9013500F024FAE9E7FC
:1002E800000000201FB51E4B6A4603F11006154694
:1002F80018685968144603C40833B3422246F7D134
:1003080000F068F900F0A6F900F0E2F901F07AF9D6
:10031800284601F078F900F089F8124A10216B207C
:1003280000F080F8104A1021702000F07BF80F4A86
:100338000021782000F076F80D4A012312216D2063
:1003480000F05AF80B4A0221732000F06BF80A4AB1
:100358001021662000F066F800F0DAF8FCE700BF2C
:10036800931600087B02000885020008590200085D
:10037800710200085D020008B10200080120704700
:10038800F0B500234F1C834201DB002020E017F862
:10039800135011F81340A5F13006F6B2092E0BD808
:1003A800D654A4F13005EEB2092E14D8D45C44EA30
:1003B8000514D4540133E6E7A5F14106052E02D809
:1003C800373DD554EDE7A5F16106052E01D9012089
:1003D800F0BD573DF5E7A4F14105052D02D8A4F17C
:1003E8003705E3E7A4F16105052DF0D8D55C573C46
:1003F80045EA0414DDE7000070B5094E34680F2C97
:100408000BDCBF2909D806EB0415C5E90212013433
:1004180028712B743460002070BD0120FCE700BFF8
:100428002C0200200023FFF7E7BF000008B5084AA8
:1004380000217620FFF7F6FF064A00217720FFF714
:10044800F1FFBDE80840044A00217920FFF7EABF20
:1004580085030008C9040008A5040008F8B5144677
:100468000E4600F081F90C4F651EC4F101046319B2
:100478009E4204DCBDE8F8400A2000F075B915F882
:10048800013F1B09F85C00F06FF92B7803F00F03AC
:10049800F85C00F069F9EAE78016000807B5074B31
:1004A8000DF107021B688DF8073001217220FFF754
:1004B800D5FF002003B05DF804FB00BF2C0200202C
:1004C80070B5124801688CB0CDB20024E3B2AB42DB
:1004D80004F1010409DB01EB41016A46C9B272204B
:1004E800FFF7BCFF00200CB070BD03EB43020CAE5D
:1004F80000EB031332441E7902F8306C9E681B7CB3
:1005080002F82F6C02F82E3CE0E700BF2C02002016
:100518002DE9F0412E4CADF5127D00F00BF9226863
:100528000023211D9A4204DC07D10DF5127DBDE898
:10053800F0811D016D5C85423DD104EB03151E0160
:100548002B7CDB0714D500238DF8083000F0F2F877
:100558008DF8C80000F0EEF802AA8DF8C90032A99B
:100568000120FFF70DFF0028DFD19DF80830AB60B0
:100578000025A7190DF1C808BB68B5EB430F1CD3BC
:1005880000F0D8F80A2801D00D28CED1344402AAA8
:10059800A56832A92846FFF7F3FE0028C5D1E9B2BD
:1005A800E36802A8984701AA8DF8040001217A207F
:1005B800FFF754FFB9E70133B4E700F0BBF80A28A6
:1005C800B3D00D28B1D005F808000135D4E700BF35
:1005D8002C02002070B596B0002403264FF4A02307
:1005E8000CA80125CDE90C631094149400F0D4F8FC
:1005F8000F23214602A8CDE90235CDE9044406942B
:1006080000F032FB114B5A6942F400225A615B69CF
:10061800CDE9094603F400230D4C0193019B07A97A
:100628004FF4C0432046CDE9073500F0C3FB2A4606
:1006380020464FF4005100F081FC2A464FF48041D7
:10064800204600F07BFC16B070BD00BF00100240D1
:100658000008004810B54FF4C06288B00223CDE905
:10066800032301210323CDE90513164C0723079320
:10067800636943F400336361636903F400330193EE
:1006880003A94FF09040019B00F094FB0E48DFF85F
:100698003CC04FF41643C0E900C30023C0E902334D
:1006A800036183610C234361A36943F48043A3611D
:1006B800A36903F480430293029B00F093FD08B002
:1006C80010BD00BF001002400004002000380140A7
:1006D800104B30B55A6942F400325A615B6987B0F1
:1006E80003F400330093009B4FF480540123CDE9B9
:1006F80001430025032301A94FF09040CDE903539E
:1007080000F058FB2A4621464FF0904000F016FCB6
:1007180007B030BD0010024001224FF480514FF065
:10072800904000F00BBC00224FF480514FF09040F5
:1007380000F004BC37B50A4D0A4C41F28833012257
:100748000DF10701284600F0CEFD18B99DF8070005
:1007580003B030BD236A43F008032362EDE700BF0E
:10076800000400200038014007B541F288338DF8B5
:10077800070001220DF10701024800F05EFD03B0F9
:100788005DF804FB00040020024B1868421C1A6044
:10079800704700BF3003002003682DE9F743D907ED
:1007A800044611D423689A0700F1868023681E073F
:1007B80000F1F48023685D0700F13B81E269002ABB
:1007C80040F0CE81002021E0B7494B6803F00C03CC
:1007D800042B07D04B6803F00C03082B19D14B6886
:1007E800DB0316D54FF4003393FAA3F2096893FAA2
:1007F800A3F3B3FA83F303F01F03012202FA03F30E
:100808000B42CFD06368002BCCD1012003B0BDE8E8
:10081800F0836268B2F5803F24D10B6843F48033DB
:100828000B60CB6AA06823F00F030343CB624AB383
:10083800FFF7AAFF4FF400360546012796FAA6F3FC
:100848000A6896FAA6F3B3FA83F303F01F0307FACC
:1008580003F31342A6D1FFF797FF431B642BEDD98F
:100868000320D3E70B6832B923F480330B600B689D
:1008780023F48023D4E7B2F5A02FF5D143F48023E5
:100888000B60CAE7FFF780FF4FF4003605460127E3
:1008980096FAA6F30A6896FAA6F3B3FA83F303F076
:1008A8001F0307FA03F313423FF47CAFFFF76CFF13
:1008B800431B642BECD9D3E77B494B6813F00C0F2F
:1008C80007D04B6803F00C03082B21D14B68DF03DA
:1008D8001ED4022393FAA3F2086893FAA3F3B3FA97
:1008E80083F303F01F03012202FA03F3034202D049
:1008F8002369934289D10868F82393FAA3F3B3FADA
:1009080083F26369934020F0F80213430B604DE7CC
:100918002269012502B395FAA5F3B3FA83F303F12B
:10092800845303F584139B0002271D60FFF72CFFF7
:10093800064697FAA7F30A6897FAA7F3B3FA83F378
:1009480003F01F0305FA03F31342D4D1FFF71CFF8A
:10095800831B022BEDD983E795FAA5F3B3FA83F34A
:1009680003F1845303F584139B0002271A60FFF7F1
:100978000BFF064697FAA7F30A6897FAA7F3B3FAA4
:1009880083F303F01F0305FA03F313423FF40EAF9A
:10099800FFF7FAFE831B022BECD961E7A269424DEF
:1009A8004248012112B391FAA1F3B3FA83F3034445
:1009B8009B0002261960FFF7E7FE074696FAA6F3A2
:1009C80096FAA6F396FAA6F36A6A96FAA6F3B3FA23
:1009D80083F303F01F0301FA03F313427FF4EAAE33
:1009E800FFF7D2FEC31B022BE8D939E791FAA1F32E
:1009F800B3FA83F303449B0002261A60FFF7C4FE90
:100A0800074696FAA6F396FAA6F396FAA6F36A6A42
:100A180096FAA6F3B3FA83F303F01F0301FA03F37C
:100A280013423FF4C7AEFFF7AFFEC31B022BE8D952
:100A380016E71D49CB69D80034D4CB6943F08053FD
:100A4800CB61CB6903F080530193019B0125184EBC
:100A58003368DA052ED5E368012B3BD10B6A43F0E6
:100A680001030B62FFF790FE02260746B1464FF0DE
:100A7800010896FAA6F396FAA6F3002B68D00A6A3C
:100A880099FAA9F3B3FA83F303F01F0308FA03F3FF
:100A9800134255D0002D3FF491AECB6923F080531B
:100AA800CB618BE60025D2E7001002402081901030
:100AB80000700040336843F480733360FFF764FECE
:100AC80007463368DB05C6D4FFF75EFEC01B642803
:100AD800F7D9C5E633BB0B6A23F001030B620B6A37
:100AE80023F004030B62FFF74FFE02260746B146C8
:100AF8004FF0010896FAA6F396FAA6F363B30A6ACA
:100B080099FAA9F3B3FA83F303F01F0308FA03F37E
:100B18001342BFD0FFF738FE41F28833C01B98421A
:100B2800E8D99DE6052B0B6A03D143F004030B6259
:100B380094E723F001030B620B6A23F0040390E7A8
:100B4800FFF722FE41F28833C01B984291D987E60D
:100B580096FAA6F34A6A93E796FAA6F34A6ACFE7A3
:100B680040494B6803F00C03082B3FF44EAE022AB1
:100B78004FF0807351D193FAA3F3B3FA83F303F1DF
:100B8800845303F584139B0000221A60FFF7FCFDD1
:100B98004FF000770646012597FAA7F30A6897FAF7
:100BA800A7F3B3FA83F303F01F0305FA03F3134221
:100BB8002DD1D4E908034A68034322F4741213437D
:100BC8004B604FF0807393FAA3F3B3FA83F303F106
:100BD800845303F584139B0001261D60FFF7D4FDA1
:100BE8004FF00075044695FAA5F30A6895FAA5F33F
:100BF800B3FA83F303F01F0306FA03F313427FF4F7
:100C0800E1ADFFF7C1FD001B0228ECD928E6FFF78C
:100C1800BBFD831B022BBFD922E693FAA3F3B3FAD9
:100C280083F303F1845303F584139B0000221A60B5
:100C3800FFF7AAFD4FF000750446012695FAA5F3C3
:100C48000A6895FAA5F3B3FA83F303F01F0306FACB
:100C580003F313423FF4B6ADFFF796FD001B0228DD
:100C6800ECD9FDE500100240504AF8B5136803F0CE
:100C780007038B4204461BD32268900724D4D2076B
:100C88002AD44A4A136803F007038B427AD82068AB
:100C9800430700F1828010F0080014D0444A21690B
:100CA800536823F4605343EAC103536000200AE009
:100CB800136823F007030B431360136803F007035B
:100CC8008B42D9D00120F8BD3948A568436823F084
:100CD800F0032B434360D2E76268354D012A27D1E0
:100CE8004FF4003393FAA3F0286893FAA3F3B3FA06
:100CF80083F303F01F0302FA03F30342E2D06B68A5
:100D080023F003031A436A60FFF73EFD6368012B73
:100D1800064641F288371ED16B6803F00C03042B9A
:100D2800AFD0FFF731FD801BB842F5D90320CAE7E1
:100D3800022A0CBF4FF00073022393FAA3F02E6827
:100D480093FAA3F3B3FA83F303F01F03012000FA25
:100D580003F33342D2E7022B0FD16B6803F00C0385
:100D6800082B8ED0FFF710FD801BB842F5D9DDE7C0
:100D7800FFF70AFD801BB842D8D86B6813F00C0F38
:100D8800F6D17EE7136823F007030B43136013685B
:100D980003F007038B4295D179E70549E3684A6870
:100DA80022F4E0621A434A6075E700BF002002405F
:100DB800001002402DE9F74FDFF87C815C4C0023DE
:100DC8004FF001090A6832FA03F502D103B0BDE811
:100DD800F08F09FA03FA1AEA020200F09E804D68C1
:100DE80025F0100EBEF1020F14D14FEAD30C00EB20
:100DF8008C0C03F0070BDCF820604FEA8B0B0F27F5
:100E080007FA0BF726EA07070E6906FA0BF63E43C0
:100E1800CCF82060D0F800B04FEA430C032606FA5D
:100E28000CF72BEA070BFE4305F0030707FA0CF74C
:100E38000EF1FF3E47EA0B07BEF1010F076011D81C
:100E4800876806EA070ECF6807FA0CF747EA0E0725
:100E58008760476827EA0A0AC5F300179F4047EAF0
:100E68000A074760C76837408E6806FA0CF63E43A3
:100E7800C660EE0051D5D8F8186046F00106C8F8EB
:100E88001860D8F8186023F0030707F1804706F0C8
:100E9800010607F58037019603F0030E019EBE6830
:100EA8004FEA8E0E4FF00F0C0CFA0EFCB0F1904F7B
:100EB80026EA0C0C33D01F4EB04232D006F58066BD
:100EC800B04230D006F58066B0422ED006F5806676
:100ED800B0420CBF0426052606FA0EF646EA0C06B2
:100EE800BE602668D74315F4803F0CBF3E401643CA
:100EF8002660666815F4003F0CBF3E4016436660E6
:100F0800A66815F4801F0CBF3E401643A660E6682D
:100F1800AD0254BF3E401643E660013352E7002657
:100F2800DAE70126D8E70226D6E70326D4E700BF8A
:100F38000004014000040048001002400AB1816129
:100F4800704781627047000002688168C36930B5E4
:100F5800056914682943456924F41644294324F093
:100F68000C041943214311605168C468056A21F4CF
:100F78004051214351609468816924F430642943C5
:100F88002143916062498A4216D101F55841096BA3
:100F980001F003010139022900F2B2805D4CB3F57A
:100FA800004F615C77D1082972D8DFE801F0ACAC5A
:100FB8002471AC717171A40057498A422CD101F592
:100FC800E631096B01F44031B1F5003F00F0908043
:100FD8000BD8002900F09480B1F5803F00F0908094
:100FE800B3F5004F54D0012015E0B1F5403FF7D1DB
:100FF800B3F5004F66D141684B0803F1F47303F56C
:101008009043B3FBF1F300209BB223F00F01C3F32D
:1010180042030B43D36030BD40498A4210D101F5E9
:10102800E431096B01F44021B1F5002F60D004D8F8
:10103800002965D0B1F5802FD0E7B1F5402FD6E76C
:1010480037498A4210D101F5E231096B01F44011A8
:10105800B1F5001F4CD004D8002951D0B1F5801F3C
:10106800BCE7B1F5401FC2E72E498A42B8D101F565
:10107800E031096B01F44001B1F5000F38D004D814
:1010880000293DD0B1F5800FA8E7B1F5400FAEE7D4
:1010980001200023B9E70829A5D801A353F821F0B6
:1010A800E5100008E5100008CD100008EF0F000853
:1010B800E5100008EF0F0008EF0F0008EF0F000819
:1010C800EF10000841684B0803F5740303F510534B
:1010D800B3FBF1F39BB2D36000209CE741684B0857
:1010E80003F5E103F4E741684B0803F50043EFE734
:1010F800B3F5004FF7D141684B0803F5803380E71B
:10110800B3F5004FEAD141684B0803F5610378E76E
:101118000038014090160008004400400048004094
:10112800004C004000500040F8B5069F04461546A4
:101138001E462268D36931EA03030CBF012300234A
:10114800AB4201D0002014E07B1CF3D097B9236890
:101158001A6822F4D0721A609A6822F001029A6022
:10116800202384F8693084F86A30002384F86830D2
:101178000320F8BDFFF708FB801BB842D9D9E6E782
:1011880037B504460021C166FFF7FEFA23681B68DD
:101198001A07054617D423681B685B070AD56FF042
:1011A8007E43009300222B464FF480012046FFF730
:1011B800BBFFA0B92023002084F8693084F86800B8
:1011C80084F86A300CE06FF07E4300930A460346C9
:1011D8004FF400112046FFF7A7FF0028DBD00320BB
:1011E80003B030BD10B5044628B390F8693003F059
:1011F800FF020BB980F868202268242384F869303C
:10120800136823F0010313602046FFF79DFE0128B1
:1012180011D023685A6822F490425A609A6822F0E2
:101228002A029A601A6842F0010220461A60BDE854
:101238001040FFF7A5BF012010BDF7B51E4690F876
:101248006930202B0D46044611464AD1002D46D060
:10125800002A44D090F86830012B42D0012380F84E
:1012680068300023C366212380F86930FFF78CFAC1
:101278000746A4F85010A4F85210B4F8522092B2BD
:1012880062B900963B4640212046FFF74DFF98B9CA
:10129800202384F8693084F868000EE0B4F85220FE
:1012A8000096013A92B2A4F852203B4600228021CF
:1012B8002046FFF739FF10B1032003B0F0BDA36843
:1012C8002268B3F5805F07D123692BB935F8023B53
:1012D800C3F308031385D0E715F8013BFAE70120AB
:1012E800EBE70220E9E72DE9F3411E4690F86A3062
:1012F800202B0D46044611465CD1002D58D0002AFB
:1013080056D090F86830012B54D0012380F868300B
:1013180003684FF0FF321A620023C366222380F865
:101328006A30FFF731FAA368A4F85810B3F5805F64
:101338008046A4F85A1015D123698BB940F2FF13DF
:10134800A4F85C30B4F85C70B4F85A0080B280B984
:10135800202384F86A3084F8680002B0BDE8F08180
:10136800FF23EDE7002BEDD12369002BF8D07F2375
:10137800E6E7B4F85A200096013A92B2A4F85A2047
:101388004346002220212046FFF7CEFEA0B9A268DE
:101398002368B2F5805F06D1226922B99B8C3B4055
:1013A80025F8023BD0E79B8C3B4005F8013BCBE797
:1013B8000120D2E70220D0E70320CEE72C4A52F8DA
:1013C800043B73B503F11001187810705878507009
:1013D80098789070D878D07004338B4202F1040268
:1013E800F2D1244B2449042201AD1C46042014F8F0
:1013F800016B05F8016B0138F9D1900718D19DF8F8
:1014080004409DF807500C5D9DF805008DF80740D5
:1014180001EB92049DF80660085C94F800418E5D2B
:101428004D5D8DF8056060408DF806508DF804001C
:1014380013F80C0C9DF80440604018719DF80540A5
:1014480013F80B0C604058719DF8064013F80A0C0D
:10145800604098719DF8074013F8090C013260400C
:101468002C2AD87103F10403BED102B070BD00BFAD
:101478003803002048030020020000200B4BF0B581
:10148800D3F8B4400001211D1A1D14340B1F16187F
:101498001D7816F8017B7D4003F8015B8B42F7D17C
:1014A800191DA14200F10400F0D1F0BD380300205D
:1014B800094B0A48D3F8B43010B5191D002213F8A7
:1014C8002240045D03F822400132042AF7D1013397
:1014D8008B42F3D110BD00BF38030020020000206A
:1014E8000D4BD3F8B43059795A785970597A5971E3
:1014F800597B5972997A5A739A789970997B9A722A
:101508009A799971D97B9A73DA78D970D97AD9731B
:10151800D979D972DA71704738030020C3095A00A3
:10152800134403EBC30383EA4000C0B270470000D2
:101538002DE9F84F0020FFF7A1FF0124FFF7B8FFBE
:10154800FFF7CEFF1F4BD3F8B41001F1100B91F841
:1015580000A04E788D7891F803908AEA060085EA13
:10156800090888EA0007FFF7D9FF8AEA00007840EF
:10157800087086EA0500FFF7D1FF46407E404E70AE
:101588004046FFF7CBFF45407D408D708AEA090051
:10159800FFF7C4FF89EA000987EA0907CF70043119
:1015A8005945D4D120460134E4B2FFF767FF0A2C2D
:1015B800C4D1FFF77DFFFFF793FF2046BDE8F84F42
:1015C800FFF75CBF380300204B1E01380F3113F8BA
:1015D800012F00F8012F8B42F9D17047014B186099
:1015E800FFF7ECBE3803002008B501460448C0F8F0
:1015F800B410B830FFF7E8FFBDE80840FFF798BF20
:10160800380300207047FFF7E9BFFFF7EDBF7047C9
:1016180070477047002103E00B4B5B58435004317F
:101628000A480B4B42189A42F6D30A4A02E00023B2
:1016380013600432084B9A42F9D3AFF30080FEF7E7
:10164800E3FDFEF74FFEFEE7AC16000800000020A1
:10165800100200201002002070040020FEE70000A5
:10166800F8B500BFF8BC08BC9E467047F8B500BF87
:08167800F8BC08BC9E46704757
:1016800030313233343536373839414243444546B8
:101690000408022B7E151628AED2A6ABF7158809D2
:0416A000CF4F3C00EC
:0416A400F101000848
:0416A800C90100086C
:1016AC000A00637C777BF26B6FC53001672BFED72A
:1016BC00AB76CA82C97DFA5947F0ADD4A2AF9CA4CF
:1016CC0072C0B7FD9326363FF7CC34A5E5F171D83F
:1016DC00311504C723C31896059A071280E2EB272D
:1016EC00B27509832C1A1B6E5AA0523BD6B329E350
:1016FC002F8453D100ED20FCB15B6ACBBE394A4C30
:10170C0058CFD0EFAAFB434D338545F9027F503CAF
:10171C009FA851A3408F929D38F5BCB6DA2110FFDB
:10172C00F3D2CD0C13EC5F974417C4A77E3D645DD8
:10173C00197360814FDC222A908846EEB814DE5E65
:10174C000BDBE0323A0A4906245CC2D3AC629195B9
:10175C00E479E7C8376D8DD54EA96C56F4EA657AF5
:10176C00AE08BA78252E1CA6B4C6E8DD741F4BBD96
:10177C008B8A703EB5664803F60E613557B986C143
:10178C001D9EE1F8981169D98E949B1E87E9CE5560
:10179C0028DF8CA1890DBFE6426841992D0FB0540A
:1017AC00BB168D01020408102040801B3652096ABA
:1017BC00D53036A538BF40A39E81F3D7FB7CE339E7
:1017CC00829B2FFF87348E4344C4DEE9CB547B9439
:1017DC0032A6C2233DEE4C950B42FAC34E082EA105
:1017EC006628D924B2765BA2496D8BD12572F8F6A6
:1017FC006486689816D4A45CCC5D65B6926C70480F
:10180C0050FDEDB9DA5E154657A78D9D8490D8AB87
:10181C00008CBCD30AF7E45805B8B34506D02C1E8F
:10182C008FCA3F0F02C1AFBD0301138A6B3A9111EE
:10183C00414F67DCEA97F2CFCEF0B4E67396AC7406
:10184C0022E7AD3585E2F937E81C75DF6E47F11AF2
:10185C00711D29C5896FB7620EAA18BE1BFC563EB6
:10186C004BC6D279209ADBC0FE78CD5AF41FDDA886
:10187C00338807C731B11210592780EC5F60517F54
:10188C00A919B54A0D2DE57A9F93C99CEFA0E03BB1
:10189C004DAE2AF5B0C8EBBB3C83539961172B04B2
:1018AC007EBA77D626E169146355210C7D000000C1
:040000050800161DBC
:00000001FF
